S12301007E01058D0BCE0800DF7EDF5086FFA700CE5FFFDF588E00FFCE00D3DF89CE06F56F
S1230120BD0246BD04432531DF42BD02AF27E68D5B2BE2DF420808A6008120260ABD02AEB6
S12301402609086D0020EA8D5320E6DE42DF728D3F2BC29C7227D820DCDF74974AD74BE698
S123016000C12F263D8D25BD04966D002BA78D0220F5DF42A600E601BD0586DE420808BD59
S12301800246DE4208086D0026FB0839DE7EDF42A601904BA6002B09924A24048DE420EEB8
S12301A04F39DE4A27BF2B62DE50A6004C265B8DDB2B18EE009C4A26128DC79E42A60036B0
S12301C0319C502704083120F49F50DE74C6036D0027315C086D0026FA4FDB519950973C8F
S12301E0D73DD05990582422DE509E3C9F500809E600379C4226F89E4AAF009E7434083357
S1230200E70126FABE01167E01237E0115CE0083DF6CCE03FCDF6EEE00DF70CE0070BD04D5
S12302200636DE6C96698B30A70008DF6CDE6E3208086D0126DFCE0082630508E600C130E8
S123024027F9730087394F9788E60008D1882705BD054A20F4BD800624EB8D08C10327AACA
S1230260C10126E17E8003812027435FD74AD74BE601C5DF2616815D2605BD04C5202C81E0
S123028040260908DF464F5F8D2A201F81222605088DB4201A812F2605BD04962010DF7216
S12302A08D2DBD049F8DAEDE4A2608DE469C08A60026B439976AD76BBD052ECE006A7E0520
S12302C03637088D158DED333239863D7E0606A6000885DF27F4813D26F58D1D36A600858D
S12302E0DF27108129270F812C27D632BD035ADE5A20E9DF469C0832397E0629C13F260BBB
S1230300DF76BD04768DD3DE760839C12826030820C88D31813A27088D16A600E601200559
S12303208D064FE600DE70398D10DB77997620258128261B8D04584920F08D13EE00DF7618
S1230340DE700820CBE60008A60081412AF9394FC43FCB0258DF707E051A3637A60036E614
S12303600137C03D27035A260108088D8C976AD76BDF5ACE006A3332813D260D33328D5123
S123038026245D26214FC60139813C261CC13D270AC13E33260B328DE5202333328D192079
S12303A01D328D2D2DDF4F5F39813E2614C13D332605328DED2007328D172DEA8DC2C80110
S12303C03933812B260632EB01A90039812D260632E001A20039812A261F329768D769C6E6
S12303E010D7664F5F74006876006924028DD8680169007A006626ED397E05C9271003E84C
S12304000064000A00017F00667C00666801690024F7660066017F00687F00698DB32404B1
S12304208DA50C9C0D7900697900687A006627126400660120E6E600C1302503C13A390CE5
S1230440390D398D2F8DEF24F94F5FEB008900C03082009766D76708378DDB3324E3584973
S12304605849DB679966584920E1C15C2706088C004A260C8D20C63A8D22CE00020927F648
S1230480BD0264E78AC15E27F4C10D25F326DB6F8ACE008B2004C60D8D02C60A7E054A37F7
S12304A0DE72E600C12E260D33174D2711C620BD054A4A20F5C13B261B338D5E270139BE46
S12304C001167E0147CE00468D03CE00428D29A700E70139C140262B36E602BD034F323325
S12304E08DED8D14BD03A2260D8DDADE89090909090909DF89398D009F649E8932339F895F
S12305009E6439C126261AE601C13D2614338D0A2607DE7EDF504AA70039976CD76DDE6C19
S123052039C121262033974AD74B8DEE2716CE00428D03CE00469F689E89A600E60137368C
S12305409F899E6839C1242604337E8000C13F263BE601C12827037E06993608BD0629D777
S12305608832338D10DF6496889B6580882B03BD04AA7E02464D2B037E020DBD06008DF8D5
S1230580C62D09E700393736C60520D3C13D261233977ED77FCEFFFFDF4ABD018CDF507E50
S12305A00115C13E260933BD051A27D9AD003736DE72BD0345813A2608BD03283233E70058
S12305C039BD033032337E04CF812F26397F00876D0026066D01260F202C2A0B7C00876003
S12305E00126026A006300324D2A057A00878D10BD0406974ED74F9668D6697D0087270576
S12306005026014A4339BD0496C63FBD054A16BD054AC620BD054ADE42BC04922605BD02C1
S1230620462003BD01727E0115BD04452513C12D2605088DF420C9C12B2607088DEB4D2BAF
S1230640F439C1232607088DE04D7E0380C1252608088DD5964ED64F39C127262A088DC93F
S1230660976AD76BDF70CE0052863DC609BD03DB8D109752D753CE006A164FBD03DB164F4A
S1230680DE70CB01890039C12226074FE60108080839C124272D7E02FCC13F270BC12427F0
S12306A00A33BD05757E0246168D0233178D0516C40F200454545454C10A2B02CB07CB3059
S12306C07E054A4F8D1925037E0264378D11D76633241F5849584958495849DB6620EC08E7
S12106E0E600C030250DC10A2508C007C10A2503C110390C390D0A2A52454144590039
S9030000FC
